:1000000033C000004CC000004AC0000048C00000DF
:1000100046C0000044C0000042C0000040C00000D4
:100020003EC000003CC000003AC0000038C00000E4
:1000300036C0000034C0000032C0000030C00000F4
:100040002EC000002CC000002AC0000028C0000004
:1000500026C0000024C0000022C0000020C0000014
:100060001EC000001CC0000011241FBECFEFD8E04E
:10007000DEBFCDBF11E0A0E0B1E0E0EDF7E002C0EF
:1000800005900D92AC37B107D9F721E0ACE7B1E0AC
:1000900001C01D92A33BB207E1F764D097C3B0CF74
:1000A000089581E080937C0186B51F928F931F9203
:1000B0008FEF8F9383E091E09F938F931ED00F90EB
:1000C0000F900F900F900F900F900895DC01FC019E
:1000D00001900020E9F73197E81BF90B9D01281BDF
:1000E000390B2E173F0740F42D913091C00035FF9A
:1000F000FCCF2093C600EBCF0895CF93DF93CDB70D
:10010000DEB7C054D1090FB6F894DEBF0FBECDBF25
:100110009E012B5B3F4FF901419151919F0160E49A
:1001200070E0CE0101968AD0CE010196CFDF80E04B
:1001300091E0CCDFC05CDF4F0FB6F894DEBF0FBE9E
:10014000CDBFDF91CF91089584B58C7F84BD85B5F7
:10015000877F85BD089584B5836084BD85B5877F1D
:1001600085BD08951092B20178941092C50027E6DB
:100170002093C4009EE09093C2008091C1008068EB
:100180008093C1008091C10080618093C100809103
:10019000C10088608093C1001092C5002093C40004
:1001A0009093C200D1DF85B5887F816085BDCCDFAB
:1001B00085B587708093B10185B5887F85BD80EF57
:1001C00086BD85B59091B101892B8093B10195B51C
:1001D000892B85BD81E590E090939E0180939D01E0
:1001E00080916E00816080936E00C0E4D1E08091C8
:1001F0007C0181110BC086B51F928F93DF93CF9343
:100200007CDF0F900F900F900F90F1CF80916E00D8
:100210008E7F80936E009FDF9EDF84B58F73806832
:1002200084BD84B58F7C84BD82E387BD8FE491E07B
:100230009F938F9362DF0F900F90FFCFAEE0B0E0FF
:10024000E3E2F1E09AC28C01FA0186E08C831A8322
:10025000098377FF02C060E070E8CB0101979E83BD
:100260008D83A901BF01CE01019611D04D815E8120
:1002700057FD0AC02F813885421753070CF49A01A5
:10028000F801E20FF31F10822E96E4E092C2ACE078
:10029000B0E0ECE4F1E063C26C017B018A01FC0197
:1002A00017821682838181FFB1C1CE0101964C0174
:1002B000F6019381F70193FD859193FF81917F0171
:1002C000882309F49FC1853239F493FD859193FF0A
:1002D00081917F01853221F4B60190E0B2D1E8CF5F
:1002E000512C312C20E02032A0F48B3269F030F414
:1002F000803259F0833269F420612CC08D3239F09C
:10030000803339F4216026C02260246023C0286035
:1003100021C027FD27C030ED380F3A3078F426FF92
:1003200006C0FAE05F9E300D1124532E13C08AE000
:10033000389E300D1124332E20620CC08E3221F4F1
:1003400026FD60C1206406C08C3611F4206802C00E
:10035000883641F4F70193FD859193FF81917F01E8
:100360008111C1CF982F9F7D9554933028F40C5F55
:100370001F4F9FE399830DC0833631F0833771F0AF
:10038000833509F057C021C0F801808189830E5F51
:100390001F4F44244394512C540114C03801F2E0FF
:1003A0006F0E711CF801A080B18026FF03C0652D7F
:1003B00070E002C06FEF7FEFC5012C8737D12C01B1
:1003C00083012C852F77222E16C03801F2E06F0EA4
:1003D000711CF801A080B18026FF03C0652D70E07C
:1003E00002C06FEF7FEFC5012C8715D12C012C8542
:1003F0002068222E830123FC19C0832D90E048162B
:100400005906A0F4B60180E290E01BD13A94F5CFF2
:10041000F50127FC859127FE81915F01B60190E0EF
:1004200010D131103A94F1E04F1A5108411451049F
:1004300079F7DFC0843611F0893631F5F80127FFEE
:1004400007C060817181828193810C5F1F4F08C05A
:1004500060817181072E000C880B990B0E5F1F4F76
:100460002F76722E97FF09C09095809570956195B3
:100470007F4F8F4F9F4F2068722E2AE030E0A401FB
:1004800010D1A82EA81843C0853729F42F7EB22E8C
:100490002AE030E025C0F22FF97FBF2E8F36C1F061
:1004A00018F4883579F0AEC0803719F0883721F01C
:1004B000A9C02F2F2061B22EB4FE0DC08B2D8460F9
:1004C000B82E09C024FF0AC09F2F9660B92E06C01F
:1004D00028E030E005C020E130E002C020E132E059
:1004E000F801B7FE07C060817181828193810C5F42
:1004F0001F4F06C06081718180E090E00E5F1F4F4A
:10050000A401CFD0A82EA818FB2DFF777F2E76FE52
:100510000BC0372D3E7FA51450F474FE0AC072FC48
:1005200008C0372D3E7E05C0BA2C372D03C0BA2C2B
:1005300001C0B52C34FF0DC0FE01EA0DF11D808114
:10054000803311F4397E09C032FF06C0B394B394EE
:1005500004C0832F867809F0B39433FD12C030FFB6
:1005600006C0B31490F43A0C532C5B180FC0B314AC
:1005700068F4B60180E290E03C8763D0B3943C8598
:10058000F6CFB31418F43B1802C05A2C312C34FFA8
:1005900011C0B60180E390E03C8753D03C8532FF28
:1005A00016C031FD03C088E790E002C088E590E006
:1005B000B6010CC0832F867851F031FF02C08BE268
:1005C00001C080E237FD8DE2B60190E03AD0A5147B
:1005D00030F4B60180E390E034D05A94F8CFAA9476
:1005E000F401EA0DF11D8081B60190E02AD0A1103E
:1005F000F6CF332009F45CCEB60180E290E021D042
:100600003A94F7CFF6018681978102C08FEF9FEF72
:100610002C96E2E1C0C0FC010590615070400110D1
:10062000D8F7809590958E0F9F1F0895FC0161501B
:10063000704001900110D8F7809590958E0F9F1F04
:1006400008950F931F93CF93DF93182F092FEB017A
:100650008B8181FD03C08FEF9FEF1EC082FF0FC013
:100660002E813F818C819D812817390774F4E881A0
:10067000F981CF01019699838883108306C0E885AC
:10068000F985812F0995892B31F78E819F810196FC
:100690009F838E83812F902FDF91CF911F910F9198
:1006A0000895FA01AA27283051F1203181F1E89408
:1006B0006F936E7F6E5F7F4F8F4F9F4FAF4FB1E055
:1006C0003ED0B4E03CD0670F781F891F9A1FA11D50
:1006D000680F791F8A1F911DA11D6A0F711D811D51
:1006E000911DA11D20D009F468943F912AE0269F16
:1006F00011243019305D3193DEF6CF010895462F75
:100700004770405D4193B3E00FD0C9F7F6CF462F55
:100710004F70405D4A3318F0495D31FD40524193BE
:1007200002D0A9F7EACFB4E0A6959795879577957B
:100730006795BA95C9F700976105710508959B0102
:10074000AC010A2E06945795479537952795BA958B
:10075000C9F7620F731F841F951FA01D08952F9264
:100760003F924F925F926F927F928F929F92AF9241
:10077000BF92CF92DF92EF92FF920F931F93CF938E
:10078000DF93CDB7DEB7CA1BDB0B0FB6F894DEBF25
:100790000FBECDBF09942A88398848885F846E844B
:1007A0007D848C849B84AA84B984C884DF80EE8095
:1007B000FD800C811B81AA81B981CE0FD11D0FB69E
:1007C000F894DEBF0FBECDBFED010895F894FFCFC2
:1007D0000D0A00576861742049276D20646F696EA7
:1007E00067206E6F773F21204D79206D61782076EC
:1007F000616C75652069733A20256420616E642000
:100800006D792076616C75652069733A20256400E6
:1008100054696D657220302069733A202564004E5A
:100820006F772054696D6572203020697320676589
:100830006E65726174696E6720612050574D206F3C
:0C0840006E206869732050494E20410072
:00000001FF
