:1000000033C00000C2C00000E7C000000CC1000007
:1000100031C1000056C1000000C40000D8C2000079
:10002000FDC2000022C3000036C200005BC2000017
:1000300080C20000A5C20000B9C10000DEC10000FE
:1000400003C2000065C100005EC30000BFC3000022
:1000500096C3000025C0000071C0000048C0000029
:100060002BC300007CC1000011241FBECFEFD8E0DD
:10007000DEBFCDBF11E0A0E0B1E0E8EBF2E102C0ED
:1000800005900D92A431B107D9F721E0A4E1B1E0C8
:1000900001C01D92AE36B207E1F7B9D40C945A09EB
:1000A0001F920F920FB60F9211242F933F934F93ED
:1000B0005F936F937F938F939F93AF93BF93EF93D0
:1000C000FF93E0913E01F0913F010995FF91EF917F
:1000D000BF91AF919F918F917F916F915F914F9160
:1000E0003F912F910F900FBE0F901F9018951F9268
:1000F0000F920FB60F9211242F933F934F935F935C
:100100006F937F938F939F93AF93BF93EF93FF93DF
:10011000E0914201F09143010995FF91EF91BF9168
:10012000AF919F918F917F916F915F914F913F918F
:100130002F910F900FBE0F901F9018951F920F9246
:100140000FB60F9211242F933F934F935F936F93AA
:100150007F938F939F93AF93BF93EF93FF93E09120
:100160004001F09141010995FF91EF91BF91AF914D
:100170009F918F917F916F915F914F913F912F91BF
:100180000F900FBE0F901F9018951F920F920FB6F1
:100190000F9211242F933F934F935F936F937F930D
:1001A0008F939F93AF93BF93EF93FF93E0911601CB
:1001B000F09117010995FF91EF91BF91AF919F9138
:1001C0008F917F916F915F914F913F912F910F9000
:1001D0000FBE0F901F9018951F920F920FB60F929F
:1001E00011242F933F934F935F936F937F938F933C
:1001F0009F93AF93BF93EF93FF93E0911801F0911A
:1002000019010995FF91EF91BF91AF919F918F9146
:100210007F916F915F914F913F912F910F900FBE02
:100220000F901F9018951F920F920FB60F921124E6
:100230002F933F934F935F936F937F938F939F93EE
:10024000AF93BF93EF93FF93E0911A01F0911B01DD
:100250000995FF91EF91BF91AF919F918F917F9100
:100260006F915F914F913F912F910F900FBE0F9023
:100270001F9018951F920F920FB60F9211242F9373
:100280003F934F935F936F937F938F939F93AF931E
:10029000BF93EF93FF93E0911C01F0911D0109952D
:1002A000FF91EF91BF91AF919F918F917F916F914E
:1002B0005F914F913F912F910F900FBE0F901F9024
:1002C00018951F920F920FB60F9211242F933F9300
:1002D0004F935F936F937F938F939F93AF93BF934E
:1002E000EF93FF93E0911E01F0911F010995FF919B
:1002F000EF91BF91AF919F918F917F916F915F919E
:100300004F913F912F910F900FBE0F901F90189516
:100310001F920F920FB60F9211242F933F934F937A
:100320005F936F937F938F939F93AF93BF93EF935D
:10033000FF93E0913601F09137010995FF91EF911C
:10034000BF91AF919F918F917F916F915F914F91ED
:100350003F912F910F900FBE0F901F9018951F92F5
:100360000F920FB60F9211242F933F934F935F93E9
:100370006F937F938F939F93AF93BF93EF93FF936D
:10038000E0914601F09147010995FF91EF91BF91EE
:10039000AF919F918F917F916F915F914F913F911D
:1003A0002F910F900FBE0F901F9018951F920F92D4
:1003B0000FB60F9211242F933F934F935F936F9338
:1003C0007F938F939F93AF93BF93EF93FF93E091AE
:1003D0003001F09131010995FF91EF91BF91AF91FB
:1003E0009F918F917F916F915F914F913F912F914D
:1003F0000F900FBE0F901F9018951F920F920FB67F
:100400000F9211242F933F934F935F936F937F939A
:100410008F939F93AF93BF93EF93FF93E09132013C
:10042000F09133010995FF91EF91BF91AF919F91A9
:100430008F917F916F915F914F913F912F910F908D
:100440000FBE0F901F9018951F920F920FB60F922C
:1004500011242F933F934F935F936F937F938F93C9
:100460009F93AF93BF93EF93FF93E0913401F0918B
:1004700035010995FF91EF91BF91AF919F918F91B8
:100480007F916F915F914F913F912F910F900FBE90
:100490000F901F9018951F920F920FB60F92112474
:1004A0002F933F934F935F936F937F938F939F937C
:1004B000AF93BF93EF93FF93E0912801F09129014F
:1004C0000995FF91EF91BF91AF919F918F917F918E
:1004D0006F915F914F913F912F910F900FBE0F90B1
:1004E0001F9018951F920F920FB60F9211242F9301
:1004F0003F934F935F936F937F938F939F93AF93AC
:10050000BF93EF93FF93E0912A01F0912B0109959E
:10051000FF91EF91BF91AF919F918F917F916F91DB
:100520005F914F913F912F910F900FBE0F901F90B1
:1005300018951F920F920FB60F9211242F933F938D
:100540004F935F936F937F938F939F93AF93BF93DB
:10055000EF93FF93E0912C01F0912D010995FF910C
:10056000EF91BF91AF919F918F917F916F915F912B
:100570004F913F912F910F900FBE0F901F901895A4
:100580001F920F920FB60F9211242F933F934F9308
:100590005F936F937F938F939F93AF93BF93EF93EB
:1005A000FF93E0912E01F0912F010995FF91EF91BA
:1005B000BF91AF919F918F917F916F915F914F917B
:1005C0003F912F910F900FBE0F901F9018951F9283
:1005D0000F920FB60F9211242F933F934F935F9377
:1005E0006F937F938F939F93AF93BF93EF93FF93FB
:1005F000E0912201F09123010995FF91EF91BF91C4
:10060000AF919F918F917F916F915F914F913F91AA
:100610002F910F900FBE0F901F9018951F920F9261
:100620000FB60F9211242F933F934F935F936F93C5
:100630007F938F939F93AF93BF93EF93FF93E0913B
:100640002401F09125010995FF91EF91BF91AF91A0
:100650009F918F917F916F915F914F913F912F91DA
:100660000F900FBE0F901F9018951F920F920FB60C
:100670000F9211242F933F934F935F936F937F9328
:100680008F939F93AF93BF93EF93FF93E0912601D6
:10069000F09127010995FF91EF91BF91AF919F9143
:1006A0008F917F916F915F914F913F912F910F901B
:1006B0000FBE0F901F9018951F920F920FB60F92BA
:1006C00011242F933F934F935F936F937F938F9357
:1006D0009F93AF93BF93EF93FF93E0914401F09109
:1006E00045010995FF91EF91BF91AF919F918F9136
:1006F0007F916F915F914F913F912F910F900FBE1E
:100700000F901F9018951F920F920FB60F92112401
:100710002F934F935F936F937F938F939F93AF9399
:10072000BF93EF93FF932091C60080916901909150
:100730006A01019660E270E0A8D140916B0150918E
:100740006C018417950759F0E0916901F0916A01F5
:10075000E75BFE4F208390936A0180936901FF91CC
:10076000EF91BF91AF919F918F917F916F915F9129
:100770004F912F910F900FBE0F901F9018951F92C1
:100780000F920FB60F9211242F933F934F935F93C5
:100790006F937F938F939F93AF93BF93EF93FF9349
:1007A000E0913C01F0913D010995FF91EF91BF91DE
:1007B000AF919F918F917F916F915F914F913F91F9
:1007C0002F910F900FBE0F901F9018951F920F92B0
:1007D0000FB60F9211242F933F934F935F936F9314
:1007E0007F938F939F93AF93BF93EF93FF93E0918A
:1007F0003A01F0913B010995FF91EF91BF91AF91C3
:100800009F918F917F916F915F914F913F912F9128
:100810000F900FBE0F901F9018951F920F920FB65A
:100820000F9211242F933F934F935F936F937F9376
:100830008F939F93AF93BF93EF93FF93E09120012A
:10084000F09121010995FF91EF91BF91AF919F9197
:100850008F917F916F915F914F913F912F910F9069
:100860000FBE0F901F90189508959091C00095FFAE
:10087000FCCF8093C60008950F931F93CF93DF930F
:10088000EC018C01FE0101900020E9F73197EC1B8F
:10089000FD0BC8018C1B9D0B8E179F0728F4F801D8
:1008A00081918F01E2DFEECFDF91CF911F910F9108
:1008B000089580E091E0E0DF8DE0D7DF8AE0D5CFDA
:1008C0008F929F92AF92BF92CF92DF92EF92FF9260
:1008D0000F931F93CF938C017B01C0E04B01B12C90
:1008E000A12C80E2C82ED12C70E060E0E114F1046C
:1008F00049F0C501B4011CD126E636E646E450E4D1
:100900007DD1EAD0E0E030E020E080916901909173
:100910006A0140916B0150916C01841B950B8F71A2
:100920009927892B69F46115710579F362177307AB
:1009300008F444C0E11102C02F5F3F4FEF5FE5CFE5
:10094000E0916B01F0916C01E75BFE4F20812093F9
:100950006D0180916B0190916C010196B60195D06B
:1009600090936C0180936B01C11117C02D3099F4E5
:100970008091480181110DC081E0CF911F910F91AD
:10098000FF90EF90DF90CF90BF90AF909F908F90AF
:1009900008958FDFF1CF2A3029F0F801EC0FF11D17
:1009A0002083CF5F8C2F8150990BFC01E00FF11F4A
:1009B00080818D3009F098CF1082DACF80E0DDCFD2
:1009C000CF93DF93CDB7DEB7C054D1090FB6F894FB
:1009D000DEBF0FBECDBF9E012B5B3F4FF9014191A2
:1009E00051919F0160E470E0CE0101969BD1CE0150
:1009F000019642DF82E091E03FDFC05CDF4F0FB63F
:100A0000F894DEBF0FBECDBFDF91CF910895CF9395
:100A1000DF93CDB7DEB728970FB6F894DEBF0FBED1
:100A2000CDBF1092480178941092C50023E3209323
:100A3000C4009EE09093C2008091C10080688093C2
:100A4000C1008091C10080618093C1008091C1008C
:100A500088608093C1001092C5002093C4009093D9
:100A6000C20007E011E070E060E0CE01019628DFEF
:100A700065E071E0CE0101964CD1892BA1F71F935F
:100A80000F939EDF0F900F90EECF97FB072E16F47B
:100A9000009406D077FD08D00BD007FC05D03EF4BB
:100AA000909581959F4F0895709561957F4F08951A
:100AB000AA1BBB1B51E107C0AA1FBB1FA617B70784
:100AC00010F0A61BB70B881F991F5A95A9F78095A0
:100AD0009095BC01CD01089570D088F09F5790F09B
:100AE000B92F9927B751A0F0D1F0660F771F881F53
:100AF000991F1AF0BA95C9F712C0B13081F077D0BA
:100B0000B1E0089574C0672F782F8827B85F39F057
:100B1000B93FCCF3869577956795B395D9F73EF4B1
:100B200090958095709561957F4F8F4F9F4F089559
:100B3000E89409C097FB3EF4909580957095619577
:100B40007F4F8F4F9F4F9923A9F0F92F96E9BB272D
:100B50009395F695879577956795B795F111F8CFA9
:100B6000FAF4BB0F11F460FF1BC06F5F7F4F8F4F14
:100B70009F4F16C0882311F096E911C0772321F00A
:100B80009EE8872F762F05C0662371F096E8862FA2
:100B900070E060E02AF09A95660F771F881FDAF7F9
:100BA000880F9695879597F9089557FD9058440FAB
:100BB000551F59F05F3F71F04795880F97FB991FBC
:100BC00061F09F3F79F08795089512161306140679
:100BD000551FF2CF4695F1DF08C016161706180606
:100BE000991FF1CF86957105610508940895E894E1
:100BF000BB2766277727CB0197F908950BD078C0DC
:100C000069D028F06ED018F0952309F05AC05FC063
:100C10001124EECFCADFA0F3959FD1F3950F50E0DA
:100C2000551F629FF001729FBB27F00DB11D639F9E
:100C3000AA27F00DB11DAA1F649F6627B00DA11D44
:100C4000661F829F2227B00DA11D621F739FB00DEA
:100C5000A11D621F839FA00D611D221F749F33275A
:100C6000A00D611D231F849F600D211D822F762FF3
:100C70006A2F11249F5750408AF0E1F088234AF0F0
:100C8000EE0FFF1FBB1F661F771F881F915050403C
:100C9000A9F79E3F510570F014C0AACF5F3FECF357
:100CA000983EDCF3869577956795B795F795E79528
:100CB0009F5FC1F7FE2B880F911D9695879597F939
:100CC000089597F99F6780E870E060E008959FEFCE
:100CD00080EC089500240A941616170618060906D3
:100CE000089500240A9412161306140605060895A2
:100CF000092E0394000C11F4882352F0BB0F40F42A
:100D0000BF2B11F460FF04C06F5F7F4F8F4F9F4F69
:100D10000895FB01DC018D91019080190110D9F338
:100D2000990B0895AEE0B0E0E7E9F6E09AC28C01D5
:100D3000FA0186E08C831A83098377FF02C060E0A2
:100D400070E8CB0101979E838D83A901BF01CE017D
:100D5000019611D04D815E8157FD0AC02F813885E3
:100D6000421753070CF49A01F801E20FF31F1082A7
:100D70002E96E4E092C2ACE0B0E0E0ECF6E063C2B4
:100D80006C017B018A01FC0117821682838181FF3D
:100D9000B1C1CE0101964C01F6019381F70193FD9B
:100DA000859193FF81917F01882309F49FC185324A
:100DB00039F493FD859193FF81917F01853221F470
:100DC000B60190E0B2D1E8CF512C312C20E0203296
:100DD000A0F48B3269F030F4803259F0833269F438
:100DE00020612CC08D3239F0803339F4216026C067
:100DF0002260246023C0286021C027FD27C030ED79
:100E0000380F3A3078F426FF06C0FAE05F9E300DC6
:100E10001124532E13C08AE0389E300D1124332E36
:100E200020620CC08E3221F426FD60C1206406C011
:100E30008C3611F4206802C0883641F4F70193FD26
:100E4000859193FF81917F018111C1CF982F9F7D63
:100E50009554933028F40C5F1F4F9FE399830DC086
:100E6000833631F0833771F0833509F057C021C0E4
:100E7000F801808189830E5F1F4F44244394512CD5
:100E8000540114C03801F2E06F0E711CF801A0800B
:100E9000B18026FF03C0652D70E002C06FEF7FEFC9
:100EA000C5012C8737D12C0183012C852F77222E69
:100EB00016C03801F2E06F0E711CF801A080B180FD
:100EC00026FF03C0652D70E002C06FEF7FEFC50104
:100ED0002C8715D12C012C852068222E830123FC20
:100EE00019C0832D90E048165906A0F4B60180E29F
:100EF00090E01BD13A94F5CFF50127FC859127FEB0
:100F000081915F01B60190E010D131103A94F1E087
:100F10004F1A51084114510479F7DFC0843611F09B
:100F2000893631F5F80127FF07C060817181828120
:100F300093810C5F1F4F08C060817181072E000CE8
:100F4000880B990B0E5F1F4F2F76722E97FF09C0EB
:100F500090958095709561957F4F8F4F9F4F20683A
:100F6000722E2AE030E0A40110D1A82EA81843C0A8
:100F7000853729F42F7EB22E2AE030E025C0F22FEB
:100F8000F97FBF2E8F36C1F018F4883579F0AEC0E6
:100F9000803719F0883721F0A9C02F2F2061B22E99
:100FA000B4FE0DC08B2D8460B82E09C024FF0AC08A
:100FB0009F2F9660B92E06C028E030E005C020E1E2
:100FC00030E002C020E132E0F801B7FE07C06081E6
:100FD0007181828193810C5F1F4F06C06081718196
:100FE00080E090E00E5F1F4FA401CFD0A82EA8187C
:100FF000FB2DFF777F2E76FE0BC0372D3E7FA5148D
:1010000050F474FE0AC072FC08C0372D3E7E05C045
:10101000BA2C372D03C0BA2C01C0B52C34FF0DC03B
:10102000FE01EA0DF11D8081803311F4397E09C083
:1010300032FF06C0B394B39404C0832F867809F0BE
:10104000B39433FD12C030FF06C0B31490F43A0CD1
:10105000532C5B180FC0B31468F4B60180E290E023
:101060003C8763D0B3943C85F6CFB31418F43B1897
:1010700002C05A2C312C34FF11C0B60180E390E03D
:101080003C8753D03C8532FF16C031FD03C088E752
:1010900090E002C088E590E0B6010CC0832F86780E
:1010A00051F031FF02C08BE201C080E237FD8DE2DA
:1010B000B60190E03AD0A51430F4B60180E390E098
:1010C00034D05A94F8CFAA94F401EA0DF11D80812E
:1010D000B60190E02AD0A110F6CF332009F45CCEFF
:1010E000B60180E290E021D03A94F7CFF6018681F4
:1010F000978102C08FEF9FEF2C96E2E1C0C0FC0108
:101100000590615070400110D8F7809590958E0F32
:101110009F1F0895FC016150704001900110D8F7A5
:10112000809590958E0F9F1F08950F931F93CF93D7
:10113000DF93182F092FEB018B8181FD03C08FEF07
:101140009FEF1EC082FF0FC02E813F818C819D8149
:101150002817390774F4E881F981CF010196998342
:101160008883108306C0E885F985812F0995892B2E
:1011700031F78E819F8101969F838E83812F902FDF
:10118000DF91CF911F910F910895FA01AA2728307E
:1011900051F1203181F1E8946F936E7F6E5F7F4F44
:1011A0008F4F9F4FAF4FB1E03ED0B4E03CD0670FC0
:1011B000781F891F9A1FA11D680F791F8A1F911D13
:1011C000A11D6A0F711D811D911DA11D20D009F463
:1011D00068943F912AE0269F11243019305D3193A5
:1011E000DEF6CF010895462F4770405D4193B3E08E
:1011F0000FD0C9F7F6CF462F4F70405D4A3318F035
:10120000495D31FD4052419302D0A9F7EACFB4E0E5
:10121000A6959795879577956795BA95C9F700979D
:101220006105710508959B01AC010A2E069457953E
:10123000479537952795BA95C9F7620F731F841F95
:10124000951FA01D08952F923F924F925F926F922B
:101250007F928F929F92AF92BF92CF92DF92EF9246
:10126000FF920F931F93CF93DF93CDB7DEB7CA1BC7
:10127000DB0B0FB6F894DEBF0FBECDBF09942A88F2
:10128000398848885F846E847D848C849B84AA849A
:10129000B984C884DF80EE80FD800C811B81AA8127
:1012A000B981CE0FD11D0FB6F894DEBF0FBECDBFF2
:0812B000ED010895F894FFCF51
:1012B8005F000D0A003F0068656C6C6F20776F72E5
:0412C8006C64000052
:00000001FF
